{
  "address": "0x0AB7E5aBCB1b2198c683303756d835097c80c453",
  "abi": [
    {
      "inputs": [],
      "stateMutability": "nonpayable",
      "type": "constructor"
    },
    {
      "anonymous": false,
      "inputs": [
        {
          "indexed": false,
          "internalType": "uint256",
          "name": "prevRootHash",
          "type": "uint256"
        },
        {
          "indexed": false,
          "internalType": "uint256",
          "name": "currentRootHash",
          "type": "uint256"
        }
      ],
      "name": "newRegistry",
      "type": "event"
    },
    {
      "inputs": [],
      "name": "currentRoot",
      "outputs": [
        {
          "internalType": "uint256",
          "name": "",
          "type": "uint256"
        }
      ],
      "stateMutability": "view",
      "type": "function"
    },
    {
      "inputs": [],
      "name": "owner",
      "outputs": [
        {
          "internalType": "address",
          "name": "",
          "type": "address"
        }
      ],
      "stateMutability": "view",
      "type": "function"
    },
    {
      "inputs": [
        {
          "internalType": "uint256",
          "name": "_newRoot",
          "type": "uint256"
        }
      ],
      "name": "setNewRegistry",
      "outputs": [],
      "stateMutability": "nonpayable",
      "type": "function"
    }
  ],
  "transactionHash": "0x8d553c19a8c9696810de7bee657d8f9c62e82b3069a211d405bc75f7bb957f5e",
  "args": [],
  "solcInputHash": "0b46c86ded670990cd3a9c513f8a1006",
  "bytecode": "0x608060405234801561001057600080fd5b5033600160006101000a81548173ffffffffffffffffffffffffffffffffffffffff021916908373ffffffffffffffffffffffffffffffffffffffff16021790555061023a806100616000396000f3fe608060405234801561001057600080fd5b50600436106100415760003560e01c806363875cc7146100465780638da5cb5b14610074578063fdab463d146100a8575b600080fd5b6100726004803603602081101561005c57600080fd5b81019080803590602001909291905050506100c6565b005b61007c6101b7565b604051808273ffffffffffffffffffffffffffffffffffffffff16815260200191505060405180910390f35b6100b06101dd565b6040518082815260200191505060405180910390f35b600160009054906101000a900473ffffffffffffffffffffffffffffffffffffffff1673ffffffffffffffffffffffffffffffffffffffff163373ffffffffffffffffffffffffffffffffffffffff161461016c576040517f08c379a00000000000000000000000000000000000000000000000000000000081526004018080602001828103825260218152602001806101e46021913960400191505060405180910390fd5b7f154778946982c0f3e4d5157de9ceb77a9a9af03db02343fd49e26e8dc3eff18b60005482604051808381526020018281526020019250505060405180910390a18060008190555050565b600160009054906101000a900473ffffffffffffffffffffffffffffffffffffffff1681565b6000548156fe73656e646572206d7573742062652074686520636f6e7472616374206f776e6572a26469706673582212204ce0f2b20d65334e1b4ebcc9e9676e2d019cb29cc28cbb2d4c1cea0644574c5a64736f6c63430007030033",
  "devdoc": {
    "kind": "dev",
    "methods": {},
    "version": 1
  },
  "userdoc": {
    "kind": "user",
    "methods": {},
    "version": 1
  },
  "storageLayout": {
    "storage": [
      {
        "astId": 3,
        "contract": "contracts/AuditableAccounting.sol:AuditableAccounting",
        "label": "currentRoot",
        "offset": 0,
        "slot": "0",
        "type": "t_uint256"
      },
      {
        "astId": 5,
        "contract": "contracts/AuditableAccounting.sol:AuditableAccounting",
        "label": "owner",
        "offset": 0,
        "slot": "1",
        "type": "t_address"
      }
    ],
    "types": {
      "t_address": {
        "encoding": "inplace",
        "label": "address",
        "numberOfBytes": "20"
      },
      "t_uint256": {
        "encoding": "inplace",
        "label": "uint256",
        "numberOfBytes": "32"
      }
    }
  }
}